:020000023000CC
:10E000000D9489F10D94B2F10D94B2F10D94B2F129
:10E010000D94B2F10D94B2F10D94B2F10D94B2F1F0
:10E020000D94B2F10D94B2F10D94B2F10D94B2F1E0
:10E030000D94B2F10D94B2F10D94B2F10D94B2F1D0
:10E040000D94B2F10D94B2F10D94B2F10D94B2F1C0
:10E050000D94B2F10D94B2F10D94B2F10D94B2F1B0
:10E060000D94B2F10D94B2F10D94B2F10D94B2F1A0
:10E070000D94B2F10D94B2F10D94B2F10D94B2F190
:10E080000D94B2F10D94B2F10D94B2F10D94B2F180
:10E090000D94B2F10D94B2F10D94B2F10D94B2F170
:10E0A0000D94B2F10D94B2F10D94B2F10D94B2F160
:10E0B0000D94B2F10D94B2F10D94B2F10D94B2F150
:10E0C0000D94B2F10D94B2F10D94B2F10D94B2F140
:10E0D0000D94B2F10D94B2F10D94B2F10D94B2F130
:10E0E0000D94B2F12A00593D506F727420626C6930
:10E0F0006E6B00563D73686F7720696E746572723F
:10E1000075707420566563746F727300523D447568
:10E110006D702052414D00513D51756974004C3D68
:10E120004C69737420492F4F20506F7274730048EC
:10E130003D48656C7000463D44756D7020464C410D
:10E14000534800453D44756D7020454550524F4D34
:10E1500000423D426C696E6B204C454400403D4599
:10E160004550524F4D2074657374003F3D435055E8
:10E1700020737461747300303D5A65726F2061645E
:10E18000647200504F5254004545206572722063FE
:10E190006E743D0052656164696E672045450057A5
:10E1A00072697474696E672045450020004D75736F
:10E1B000742062652061206C657474657200506F14
:10E1C0007274206E6F7420737570706F72746564F2
:10E1D000005768617420706F72743A006A6D702025
:10E1E00000726A6D702020006E6F20766563746F18
:10E1F00072005623202020414444522020206F707A
:10E2000020636F64652020202020696E737472750E
:10E210006374696F6E2061646472202020496E749B
:10E2200065727275707400352E332E3000322E30C8
:10E230002E30004175672031372032303136004CA6
:10E240006F636B20667573652020203D2000457844
:10E25000742066757365202020203D200048696782
:10E260006820667573652020203D20004C6F772064
:10E2700066757365202020203D20004350552049BD
:10E28000442020202020203D200047434320566585
:10E290007273696F6E203D2000415652204C6962B6
:10E2A00043205665723D20005F5F4156525F4152E8
:10E2B00043485F5F3D2000435055205479706520EE
:10E2C0002020203D2000436F6D70696C6564206FD5
:10E2D0006E203D20004875683F00426F6F746C6F80
:10E2E000616465723E0041726475696E6F20657885
:10E2F000706C6F7265722073746B353030563220DB
:10E300006279204D4C530041546D6567613235365A
:10E31000300011241FBECFEFD1E2DEBFCDBF01E040
:10E320000CBF12E0A0E0B2E0E6EBF7EF03E00BBFBA
:10E3300002C007900D92A430B107D9F722E0A4E003
:10E34000B2E001C01D92A231B207E1F70F94EFF2E3
:10E350000D94D9FB01E20EBF0FEF0DBF11241FBEBC
:10E360000D94EFF20D9400F08093C6008091C000F0
:10E3700086FFFCCF8091C00080648093C000089528
:10E3800020E030E02817390749F0EFECF7E031974B
:10E39000F1F700C000002F5F3F4FF4CF0895CF93F7
:10E3A000DF93EC01C60FD11DCE01A0E0B0E0ABBF02
:10E3B000FC018791882321F021960F94B4F1F4CFCA
:10E3C000DF91CF9108958DE00F94B4F18AE00D9420
:10E3D000B4F10F94CFF10D94E3F1CF93DF93EC01FF
:10E3E0008991882319F00F94B4F1FACFDF91CF917E
:10E3F0000895CF93C82F982F92959F7080E3890F2F
:10E400008A3310F087E3890F0F94B4F1CF7080E363
:10E410008C0F8A3310F087E38C0FCF910D94B4F1F9
:10E420000F931F93CF93DF93EC018B0185369105FA
:10E430001CF4633071054CF0CE0164E670E00F947B
:10E4400072FB80E3860F0F94B4F1CB30D1051CF43E
:10E45000023011056CF0CE0164E670E00F9472FB9F
:10E460006AE070E00F9472FB80E3860F0F94B4F1C2
:10E47000CE016AE070E00F9472FB805DDF91CF9176
:10E480001F910F910D94B4F18091C00087FFFCCFD4
:10E490008091C6000895CF93C82F60E083E891EE85
:10E4A0000F94CFF18C2F0F94B4F1CF910D94E3F131
:10E4B0002F923F924F925F926F927F928F929F9294
:10E4C000AF92BF92CF92DF92EF92FF920F931F9382
:10E4D000CF93DF93CDB7DEB764970FB6F894DEBF66
:10E4E0000FBECDBF8B8B6A017B0100E110E04E01B6
:10E4F00081E1880E911C8EE2382E91E0C916D1047C
:10E50000E906F10418F08E2D0F94F9F18D2D0F947A
:10E51000F9F18C2D0F94F9F180E20F94B4F18DE2B2
:10E520000F94B4F180E20F94B4F11982FE01319698
:10E530005F0126013701EC8B2B2CFB89F13051F068
:10E5400028F0F23059F4F201108108C06BBEF201DC
:10E55000179104C0C2010F94C3FB182F812F0F9491
:10E56000F9F180E20F94B4F180EE810FF5018F355F
:10E5700010F4108301C03082FFEF4F1A5F0A6F0A58
:10E580007F0A8FEFA81AB80AA814B904B1F690E16F
:10E59000C90ED11CE11CF11C198A8C89922D0F9493
:10E5A000EDF10F94E3F1015009F0A7CF64960FB697
:10E5B000F894DEBF0FBECDBFDF91CF911F910F91B9
:10E5C000FF90EF90DF90CF90BF90AF909F908F9093
:10E5D0007F906F905F904F903F902F900895CF93D2
:10E5E000DF93CDB7DEB7CE52D1400FB6F894DEBF81
:10E5F0000FBECDBF01E20EBF0FEF0DBF94B7F89471
:10E60000A89514BE8091600088618093600010928C
:10E610006000789493FF05C0E0910402F091050238
:10E620001995279A2F9A8091C00082608093C0002C
:10E6300080E18093C40088E18093C100000000E085
:10E6400010E0C12CD12C760147EC842E4BE1942EA6
:10E65000A12CB12C8091C00087FD27C001151105A8
:10E6600021F525E02A95F1F700003FEFC31AD30A00
:10E67000E30AF30A91E080E041E9C4164FE5D406CD
:10E6800041E0E406F10408F490E0092F182FC701D7
:10E69000B601A50194010F9486FB672B682B692BAB
:10E6A000C9F685B1805885B9D5CF98012F5F3F4F06
:10E6B0002130310511F00D9448FBC75DDE4F198202
:10E6C0001882C952D14000E010E0CA5DDE4F1882C6
:10E6D000C652D140F12CC95DDE4F19821882C75253
:10E6E000D140CE5DDE4F188219821A821B82C2523F
:10E6F000D140412C512C320180E090E040E02130AB
:10E700003105E1F08824839432E1932E3AE7A32E79
:10E71000B12C2091C00027FD11C051E0851A91084D
:10E72000A108B108B1F7ABBEF401279136912F3F94
:10E730003F4F41F3EE27FF270994E4CF5091C600E5
:10E74000C75DDE4F28813981C952D1402F5F3F4FCD
:10E75000C75DDE4F39832883C952D140513209F059
:10E7600021C52A30310508F07FC50F5F1F4F0330E8
:10E77000110509F07BC505E010E029E1E22EF12C3E
:10E7800081E20F94B4F131E0E31AF108C9F70F9474
:10E79000E3F10150110989F710920E0210920F0255
:10E7A000109210021092110210920A0210920B02A3
:10E7B00010920C0210920D021092060210920702A3
:10E7C000109208021092090260E086EE92EE0F9419
:10E7D000E9F11FEF09E060E08AED92EE0F94CFF1CE
:10E7E0000F9444F2982F803608F09F75903280F095
:10E7F000892FC55DDE4F9883CB52D1400F94B4F181
:10E8000080E20F94B4F1C55DDE4F9881CB52D140C8
:10E81000963409F4D1C108F097C0903409F408C1C6
:10E8200008F08BC0903309F4EDC09F3309F0B4C4F5
:10E8300062E08BE691EE0F94E9F160E086EE92EEF5
:10E840000F94E9F160E086EC92EE0F94CFF160E076
:10E8500083E392EE0F94E9F160E087EB92EE0F9480
:10E86000CFF160E087E093EE0F94E9F160E088EA91
:10E8700092EE0F94CFF186E30F94B4F10F94E3F18D
:10E8800060E08AE892EE0F94CFF160E087E292EECA
:10E890000F94E9F160E089E992EE0F94CFF160E026
:10E8A0008DE292EE0F94E9F160E08BE792EE0F9427
:10E8B000CFF18EE10F94F9F188E90F94F9F181E03D
:10E8C0000F94F9F10F94E3F160E08CE692EE0F946F
:10E8D000CFF1E0E0F0E00093570084910F94F9F15C
:10E8E0000F94E3F160E08DE592EE0F94CFF1E3E059
:10E8F000F0E00093570084910F94F9F10F94E3F145
:10E9000060E08EE492EE0F94CFF1E2E0F0E000934D
:10E91000570084910F94F9F10F94E3F160E08FE3D5
:10E9200092EE0F94CFF1E1E0F0E000935700849174
:10E930000F94F9F10F94E3F14ECF923409F4F8C03B
:10E94000953409F40FC128C4913509F499C168F5CB
:10E95000983409F455C19C3409F01EC462E08EE17C
:10E9600091EE0F94E9F181E40F944BF282E40F945D
:10E970004BF283E40F944BF284E40F944BF285E462
:10E980000F944BF286E40F944BF287E40F944BF212
:10E9900088E40F944BF28AE40F944BF28BE40F94CB
:10E9A0004BF28CE40F944BF216CF963509F472C1FA
:10E9B000993509F4EDC2923509F0EEC362E08CE0BE
:10E9C00091EE0F94E9F140910E0250910F02609187
:10E9D00010027091110282E00F9458F280910E02A1
:10E9E00090910F02A0911002B09111029F5FAF4F62
:10E9F000BF4F80930E0290930F02A0931002B0932A
:10EA00001102E9CE62E087E791EE0F94E9F11092EE
:10EA10000A0210920B0210920C0210920D02109238
:10EA20000E0210920F02109210021092110277C083
:10EA300062E08DE591EE0F94E9F160E08FE991EEEF
:10EA40000F94E9F10F94E3F1E12CF12CC7018A5105
:10EA50009D41A0E0B0E0ABBFFC01D7902AE2D21606
:10EA6000B9F0E11432E0F30699F06D2DC7010F946F
:10EA7000CBFBD11006C060E08BEA91EE0F94CFF192
:10EA800003C08D2D0F94B4F1FFEFEF1AFF0ADECF14
:10EA90000F94E3F10F94E3F160E084E991EE0F94B9
:10EAA000E9F10F94E3F1E12CF12CC12CD12CC6013A
:10EAB0008A519D41A0E0B0E0ABBFFC01B7906AE293
:10EAC000B616D9F0C11472E0D706B9F0C6010F949A
:10EAD000C3FBA82E811106C060E08BEA91EE0F9473
:10EAE000CFF102C00F94B4F1AB1419F04FEFE41A58
:10EAF000F40A5FEFC51AD50ADACF0F94E3F10F9449
:10EB0000E3F160E088E891EE0F94CFF161E070E00E
:10EB1000C7010F9410F20F94E3F10F94E3F11092F8
:10EB2000060210920702109208021092090253CEB8
:10EB300062E081E591EE0F94E9F1279A2F9A809196
:10EB4000C00087FD0CC02F9884E690E00F94C0F1C0
:10EB50002F9A84E690E00F94C0F1F1CF12B80F9491
:10EB600044F239CE62E083E491EE0F94E9F14091F2
:10EB7000060250910702609108027091090281E03B
:10EB80000F9458F28091060290910702A09108021A
:10EB9000B09109029F5FAF4FBF4F809306029093E1
:10EBA0000702A0930802B093090281159041A105C4
:10EBB000B10508F410CEB3CF62E086E391EE0F9476
:10EBC000E9F140910A0250910B0260910C027091A0
:10EBD0000D0280E00F9458F280910A0290910B028E
:10EBE000A0910C02B0910D029F5FAF4FBF4F809379
:10EBF0000A0290930B02A0930C02B0930D02EBCD8E
:10EC000062E08FE291EE0F94E9F160E087E791EE28
:10EC10000F94E9F160E08BE691EE0F94E9F160E08A
:10EC20008DE591EE0F94E9F160E081E591EE0F94AE
:10EC3000E9F160E083E491EE0F94E9F160E086E3AE
:10EC400091EE0F94E9F160E08FE291EE0F94E9F11B
:10EC500060E08EE191EE0F94E9F160E087E191EEE2
:10EC60000F94E9F160E08CE091EE0F94E9F160E03F
:10EC700083EF90EE0F94E9F160E086EE90EE8FC2A4
:10EC800062E087E191EE0F94E9F100E010E03324B7
:10EC90003394FFC262E083EF90EE0F94E9F160E0FD
:10ECA00087E093EE0F94E9F160E082EF91EE0F942C
:10ECB000E9F1212C312C812C912C5401A5019401D6
:10ECC0005695479537952795C25EDE4F2883398341
:10ECD0004A835B83CE51D1403FEF231A330A62E06F
:10ECE00070E0C1010F9410F280E20F94B4F18DE254
:10ECF0000F94B4F180E20F94B4F180E00F94F9F135
:10ED0000C25EDE4F8881CE51D1400F94F9F180E28E
:10ED10000F94B4F18DE30F94B4F180E20F94B4F149
:10ED2000ABBEF401D790D501C4010196A11DB11D60
:10ED3000ABBFFC01C790D501C4010296A11DB11D56
:10ED4000ABBFFC01E790D501C4010396A11DB11D25
:10ED5000ABBFFC01F79044E0840E911CA11CB11CD8
:10ED60004C2D50E060E070E0762F652F542F442743
:10ED70004D0D511D611D711D8C2DC55DDE4F4883EC
:10ED8000CB52D140C45DDE4F5883CC52D140C35DDD
:10ED9000DE4F6883CD52D140C25DDE4F7883CE52C4
:10EDA000D1400F94F9F180E20F94B4F18D2D0F94BE
:10EDB000F9F180E20F94B4F18F2D0F94F9F180E214
:10EDC0000F94B4F18E2D0F94F9F180E20F94B4F109
:10EDD000C55DDE4F4881CB52D140C45DDE4F5881C6
:10EDE000CC52D140C35DDE4F6881CD52D140C25D6F
:10EDF000DE4F7881CE52D1404F3F8FEF58076105EB
:10EE0000710531F460E088EE91EE0F94CFF1B8C057
:10EE1000DB01CA018827907CAA27BB278115904C6B
:10EE2000A105B10599F56A017B01FFE3DF22EE241C
:10EE3000FF24C25EDE4F88819981AA81BB81CE51B9
:10EE4000D1408C0D9D1DAE1DBF1D9C01AD01220F3B
:10EE5000331F441F551FC25EDE4F288339834A8308
:10EE60005B83CE51D14060E081EE91EE0F94CFF103
:10EE70008D2D0F94F9F18C2D0F94F9F180E20F9400
:10EE8000B4F18EE30F94B4F180E06AC04E705E7FFF
:10EE9000662777274C3054496105710509F070C029
:10EEA0008D2D817090E0A0E0B0E0DC0199278827EB
:10EEB0004F2D50E060E070E0762F652F542F4427EF
:10EEC0004E0D511D611D711D480F591F6A1F7B1F7B
:10EED0008D2D807F90E0A0E0B0E0E1E1880F991FE8
:10EEE000AA1FBB1FEA95D1F7840F951FA61FB71F56
:10EEF0002C2D2170C22ED12CE12CF12CF5E1CC0C63
:10EF0000DD1CEE1CFF1CFA95D1F7C80ED91EEA1EB7
:10EF1000FB1EB701A601440F551F661F771FC25E77
:10EF2000DE4F488359836A837B83CE51D14060E0B2
:10EF30008CED91EE0F94CFF18E2D0F94F9F18D2D74
:10EF40000F94F9F18C2D0F94F9F180E20F94B4F144
:10EF50008EE30F94B4F1C05EDE4F8881C052D14081
:10EF60000F94F9F1C15EDE4F8881CF51D1400F94EB
:10EF7000F9F1C25EDE4F8881CE51D1400F94F9F194
:10EF80000F94E3F159E32516310409F097CE23CC11
:10EF900062E086EE90EE0F94E9F160E081ED91EE93
:10EFA0000F94CFF10F9444F2982F9F75892FC55D70
:10EFB000DE4F9883CB52D1400F94B4F10F94E3F11C
:10EFC000C55DDE4F9881CB52D1408FEB890F8A31DE
:10EFD00008F0DEC0963409F471C098F4933409F453
:10EFE00041C038F4913419F1923409F0CDC014B90C
:10EFF0002BC0943409F445C0953409F0C5C01DB93F
:10F000004FC09A3409F489C048F4973409F465C0B4
:10F01000983409F0B9C0109301016EC09B3409F413
:10F020008FC09C3409F0B0C010930A019CC011B984
:10F030008091C00087FD92CD82B1809582B988EC25
:10F0400090E00F94C0F1F4CF8091C00087FD08C01C
:10F0500085B1809585B988EC90E00F94C0F1F4CF2C
:10F0600015B87DCD17B98091C00087FD08C088B163
:10F07000809588B988EC90E00F94C0F1F4CF18B86F
:10F080006ECD1AB98091C00087FD08C08BB1809504
:10F090008BB988EC90E00F94C0F1F4CF1BB85FCD32
:10F0A0008091C00087FD08C08EB180958EB988EC34
:10F0B00090E00F94C0F1F4CF1EB851CD10BB8091F9
:10F0C000C00087FD08C081B3809581BB88EC90E0CB
:10F0D0000F94C0F1F4CF11BA42CD13BB8091C000A0
:10F0E00087FD08C084B3809584BB88EC90E00F94C2
:10F0F000C0F1F4CF14BA33CD8091C00087FD0AC0AF
:10F100008091020180958093020188EC90E00F9439
:10F11000C0F1F2CF1092020122CD10930401809130
:10F12000C00087FD0AC0809105018095809305018C
:10F1300088EC90E00F94C0F1F2CF109205010FCD52
:10F14000109307018091C00087FD0AC080910801DB
:10F1500080958093080188EC90E00F94C0F1F2CF85
:10F1600010920801FCCC8091C00087FD0AC08091FC
:10F170000B01809580930B0188EC90E00F94C0F117
:10F18000F2CF10920B01EBCC60E08EEB91EE07C05A
:10F1900060E08DEA91EE03C060E085ED92EE0F94A1
:10F1A000E9F119CB433049F120F4413099F050F0A6
:10F1B0001BC04530A9F138F1463009F064C000E0C9
:10F1C00010E05EC000E010E05B3109F475C220E0A1
:10F1D00030E095CA00E010E0F526CA5DDE4F5883A6
:10F1E000C652D14042E0F3CF00E010E0852F90E01E
:10F1F000982F8827F52643E0EACF00E010E0852B22
:10F20000F52644E0E4CF5E3009F05AC2F52600E06E
:10F2100010E0C95DDE4F19821882C752D14022C06A
:10F2200000E010E0C95DDE4F28813981C752D1402E
:10F230002F5F3F4FE1E0F0E0EC0FFD1FC95DDE4FB7
:10F2400068817981C752D140E60FF71F5083F526B8
:10F250002817390709F437C2C95DDE4F398328837F
:10F26000C752D14045E0B3CF00E010E0433039F25F
:10F2700008F431C24530B1F208F432C2463029F404
:10F280005F112EC205C000E010E0473009F09FCFAB
:10F29000312C2981233109F4DDC068F5263009F4C9
:10F2A000CBC000F5223009F4D3C0233009F466C086
:10F2B000213009F0A4C11A8288E08B8381E48C8319
:10F2C00086E58D8382E58E8389E48F8383E5888755
:10F2D00080E589878FE58A8782E38B877BE0C72E6D
:10F2E000D12C92C1213109F456C008F097C02031C9
:10F2F00009F4AEC084C1283109F468C048F425314E
:10F3000009F4A8C008F432C1263109F42FC177C12D
:10F310002A3109F44EC008F46FC02B3109F43EC005
:10F320002D3109F06CC19D81903339F48F81882390
:10F33000B1F08130B1F488E917C0892F807599F058
:10F34000903521F489E0E0E0F0E005C0983559F40B
:10F3500089E0E3E0F0E080935700849105C08EE1FE
:10F3600003C081E001C080E01A821B829C831D8261
:10F370008E831F82E7E0CE2ED12C46C1EA81E05970
:10F38000E33028F4F0E0E050FE4F808101C080E0DF
:10F390001A828B833FC0332433945AC08D818823D3
:10F3A00021F0813021F488E925C08EE123C081E07D
:10F3B00021C01A82E1E0F0E089E080935700849157
:10F3C0008B831C8264E0C62ED12C1EC18B818035BC
:10F3D00059F48C81883021F4E2E0F0E089E007C044
:10F3E00089E0E0E0F0E003C089E0E3E0F0E0809352
:10F3F000570084911A82E4CF8D81836C99E0E1E01B
:10F40000F0E0082E90935700E89507B600FCFDCF7A
:10F410001A821B8253E0C52ED12CF6C080EC8A8361
:10F4200042E0C42ED12CCE5DDE4F188219821A82A2
:10F430001B82C252D140E8C06A817B818C819D8150
:10F440000F94A8FB2B013C01440C551C661C771C37
:10F450001A82D7C0CA80DB80DC24CD24DC2423318F
:10F4600009F059C0CE5DDE4F288139814A815B8128
:10F47000C252D140211560EC360763E046075105C2
:10F48000E8F483E0F90140935B0080935700E8952E
:10F4900007B600FCFDCFCE5DDE4F288139814A8161
:10F4A0005B81C252D1403F5F4F4F5F4FCE5DDE4F19
:10F4B000288339834A835B83C252D1408B85B30151
:10F4C000A201DE011B9621E01296FD0131973081E9
:10F4D00090E0932B0C01FA0160935B00209357009E
:10F4E000E89511244E5F5F4F6F4F7F4F32E0C31A94
:10F4F000D10811F08C91E8CF85E0F20160925B00B9
:10F5000080935700E89507B600FCFDCF81E180931A
:10F510005700E89527C0D301C201B695A7959795E6
:10F5200087955C014E019BE0890E911CE12CF12C2A
:10F53000EC14FD0461F0D4016D914D01C5018E0DF7
:10F540009F1D0F94CBFBBFEFEB1AFB0AF1CFA70176
:10F5500060E070E0440F551F661F771F440D551D76
:10F56000661D771D1A822A013B014BC08A819B814F
:10F570009827892798276C01E3E0CE0ED11C1A82C8
:10F58000243199F4DE0113966BBEF2012791369176
:10F590002C931296FD0131973083F2E04F0E511CEF
:10F5A000611C711C029781F728C0FE0133969C01F3
:10F5B000B301A20141BD852E962EA72EBB2482BC8D
:10F5C0004F5F5F4F6F4F7F4FF89AA0B5A1932150C7
:10F5D000310981F7AC014150510960E070E04F5FA3
:10F5E0005F4F6F4F7F4F440E551E661E771EA3E080
:10F5F000B0E0AC0FBD1FA80FB91F1C9205C080EC76
:10F600008A8332E0C32ED12C8BE10F94B4F1CA5D12
:10F61000DE4F8881C652D1400F94B4F18D2D0F94E6
:10F62000B4F18C2D0F94B4F185E1CA5DDE4FF88002
:10F63000C652D140F826FC248EE00F94B4F1FD248C
:10F640009E012F5F3F4F5901C20ED31EAC14BD0463
:10F6500041F0D501ED905D018E2D0F94B4F1FE24A3
:10F66000F5CF8F2D0F94B4F1CA5DDE4F2881C652BD
:10F67000D1402F5FCA5DDE4F2883C652D14085B18D
:10F68000805885B920E030E0332011F40D947CF3EC
:10F6900027982F9884E690E00F94C0F100008091A5
:10F6A000C0008D7F8093C00081E180935700E89572
:10F6B000EE27FF270994FFCF2BE1F22E41E087CD03
:10F6C00000E010E00DC0C95DDE4F99838883C7520A
:10F6D000D14046E07CCD413009F47ECD08F086CDA6
:10F6E00040E075CD97FB072E16F4009407D077FD08
:10F6F00009D00F94AFFB07FC05D03EF4909581959F
:10F700009F4F0895709561957F4F0895A1E21A2E3D
:10F71000AA1BBB1BFD010DC0AA1FBB1FEE1FFF1FB5
:10F72000A217B307E407F50720F0A21BB30BE40B05
:10F73000F50B661F771F881F991F1A9469F760954C
:10F740007095809590959B01AC01BD01CF01089506
:10F750006927962769277827872778270895AA1B7E
:10F76000BB1B51E107C0AA1FBB1FA617B70710F0AC
:10F77000A61BB70B881F991F5A95A9F780959095DE
:10F78000BC01CD010895F999FECF92BD81BDF89AD3
:10F79000992780B50895262FF999FECF1FBA92BDFB
:10F7A00081BD20BD0FB6F894FA9AF99A0FBE019662
:06F7B0000895F894FFCF5C
:04F7B6000F020A0034
:040000033000E000E9
:00000001FF
